:1000000033C0000041C000003FC000003DC0000000
:100010003BC0000039C0000037C0000035C0000000
:1000200033C0000031C000002FC000002DC0000010
:100030002BC0000029C0000027C0000025C0000020
:100040006CC0000021C0000020C000001DC00000E6
:100050001BC0000019C0000017C0000015C0000040
:1000600013C0000011C0000011241FBECFEFD8E064
:10007000DEBFCDBF21E0A0E0B1E001C01D92A13004
:10008000B207E1F776D0A9C0BBCF1F920F920FB68F
:100090000F9211248F939F938091C600823769F449
:1000A0008FEF90E0909389008093880090938B006D
:1000B00080938A008091000127C08091C600873616
:1000C00051F48FEF90E090938900809388008091A5
:1000D000000190E014C08091C600823651F48091F6
:1000E000000190E090938900809388008FEF90E06A
:1000F00006C08FEF90E090938900809388009093E2
:100100008B0080938A008FEF8093B3009F918F9133
:100110000F900FBE0F901F9018951F920F920FB661
:100120000F9211248F93809100018F5F80930001C3
:100130008F910F900FBE0F901F9018951092C500D1
:1001400087E68093C400E0ECF0E080818D7F8083BF
:1001500088E18093C10086E08093C200789408957E
:10016000EEE6F0E080818160808385B5856085BDA5
:100170000895E4DF80918000816080938000809109
:1001800081008860809381008091810082608093EB
:100190008100809180008068809380008091800041
:1001A0008062809380008091B00081608093B00075
:1001B0008091B00082608093B0008091B100826035
:1001C0008093B1008091B00080688093B000C8DF58
:0E01D0007894219A229A239AFFCFF894FFCFB9
:00000001FF
