:1000000033C000004CC000004AC0000048C00000DF
:1000100046C0000044C0000042C0000040C00000D4
:100020003EC000003CC000003AC0000038C00000E4
:1000300036C0000034C0000032C0000030C00000F4
:1000400039C000002CC000002BC0000028C00000F8
:1000500026C0000024C0000022C0000020C0000014
:100060001EC000001CC0000011241FBECFEFD8E04E
:10007000DEBFCDBF11E0A0E0B1E0ECEDF1E002C0E9
:1000800005900D92A833B107D9F721E0A8E3B1E0BC
:1000900001C01D92A933B207E1F763D09DC0B0CF74
:1000A0001F920F920FB60F9211240F900FBE0F9058
:1000B0001F9018951F920F920FB60F9211248F93D5
:1000C000809138018F5F809338018F910F900FBE20
:1000D0000F901F9018951092C50082E28093C40083
:1000E000E0ECF0E080818260808388E18093C10051
:1000F00086E08093C20008959091C00095FFFCCFE8
:100100008093C60008958091C00087FFFCCF809146
:10011000C60008951F93CF93DF93EC0110E0FE011A
:10012000E10FF11D8081882319F0E6DF1F5FF7CF13
:10013000DF91CF911F910895EEE6F0E0808181601C
:10014000808385B5856085BD78940895E0EBF0E007
:10015000808183608083E1EBF0E080818260808336
:100160000895B9DFE9DFF2DF88E084B988E48AB96D
:1001700080E091E0CFDFC0E2D0E410E8C4DF823756
:1001800069F4809138018093B3001092B00010920E
:10019000B0001093B0008EE091E01CC0873661F48F
:1001A0008091380187BD1092B0001092B000D093BA
:1001B000B0008BE191E00EC0823601F780913801EA
:1001C0008093B4001092B0001092B000C093B000C1
:0C01D00089E291E09FDFD2CFF894FFCFCE
:1001DC005479706520666164656E200A0D0054794F
:1001EC00706520726F6F64200A0D00547970652061
:1001FC0067726F656E200A0D005479706520426C31
:08020C00617577200A0D000066
:00000001FF
