:1000000033C000004CC000004AC0000048C00000DF
:1000100046C0000044C0000042C0000040C00000D4
:100020003EC000003CC000003AC0000038C00000E4
:1000300036C0000034C0000032C0000030C00000F4
:1000400045C000002CC000002AC0000028C00000ED
:1000500026C0000024C0000022C0000020C0000014
:100060001EC000001CC0000011241FBECFEFD8E04E
:10007000DEBFCDBF11E0A0E0B1E0EAE2F2E002C0F5
:1000800005900D92A230B107D9F721E0A2E0B1E0CE
:1000900001C01D92A730B207E1F793D0C4C0B0CF22
:1000A00080910501863030F4809105018F5F809347
:1000B00005010895109205010895EEE6F0E08081B3
:1000C0008160808385B5856085BD08951F920F92FC
:1000D0000FB60F9211242F933F934F935F936F931B
:1000E0007F938F939F93AF93BF93EF93FF938091F1
:1000F00006018F3F09F4D4DF809106018F5F809362
:1001000006018091000181508093000180910501DA
:100110008230E9F048F4882399F0813079F58091B4
:100120000601809303011CC08430E9F0A8F08530FB
:1001300029F58091000180930401809106011CC083
:1001400080910601809304018091000115C0809187
:100150000001809304010BC080910601809304018B
:100160008091000106C0809100018093030180917D
:1001700006018093020102C0809303018091040173
:100180008093B3008091030190E090938B00809363
:100190008A008091020190E090938900809388000A
:1001A000FF91EF91BF91AF919F918F917F916F914F
:1001B0005F914F913F912F910F900FBE0F901F9025
:1001C00018958FEF84B980918000816080938000C2
:1001D000809181008860809381008091810082609D
:1001E000809381008091800080688093800080915E
:1001F00080008062809380008091B0008160809355
:10020000B0008091B00082608093B0008091B10016
:1002100082608093B1008091B00080688093B000CC
:0A0220004CDF7894FFCFF894FFCF75
:02022A00FF00D3
:00000001FF
