:1000000033C0000044C0000042C0000040C00000F7
:100010003EC000003CC000003AC0000038C00000F4
:1000200036C0000034C0000032C0000030C0000004
:100030002EC000002CC000002AC0000028C0000014
:1000400026C0000024C0000022C0000020C0000024
:100050001EC000001CC000001AC0000018C0000034
:1000600016C0000014C0000011241FBECFEFD8E05E
:10007000DEBFCDBF11E0A0E0B1E0E6EDF1E002C0EF
:1000800005900D92A235B107D9F754D0A2C0B8CFD0
:100090001092C50087E68093C400E0ECF0E0808118
:1000A0008D7F808388E18093C10086E08093C200C9
:1000B000789408959091C00095FFFCCF8093C6007E
:1000C00008958091C00087FFFCCF8091C6000895FD
:1000D0001F93CF93DF93EC0110E0FE01E10FF11DC0
:1000E0008081882319F0E6DF1F5FF7CFDF91CF9182
:1000F0001F91089540E050E0E0E44617570790F460
:1001000020E030E02817390739F0F5E0FA95F1F7EB
:1001100000002F5F3F4FF6CF2BB12E272BB9480F92
:10012000591FEBCF089525E02A95F1F700000197BC
:10013000D1F70895CF93DF93CDB7DEB7E7970FB62A
:10014000F894DEBF0FBECDBF569AA2DF86E391E0E2
:10015000BFDF82E1E0E0F1E0DE01959601900D92D3
:100160008A95E1F784E2E2E1F1E0DE011196019087
:100170000D928A95E1F700E018E7A3DF982F8EE44F
:100180009FAB98DFFE01B59620E030E09FA98191FA
:10019000981310C0F901EE0FFF1F81E090E08C0F63
:1001A0009D1FE80FF91FB80180819181A3DF8AE4C8
:1001B00081DFE3CF2F5F3F4F2231310541F79B3580
:1001C000D1F29D3519F400E010EFD7CFC801ABDFB5
:0601D000D4CFF894FFCF2C
:1001D600617773656466746779686A696B6F6C705A
:1001E6003B271304D803A1036D033B030D03E10270
:1001F600B80291026C02490226081A06D804D001F8
:10020600B6019E0186012D2D2D2D2D205365726977
:10021600616C204F7267616E202D2D2D2D2D2D0DB9
:020226000A00CC
:00000001FF
