:1000000033C0000039C0000037C0000035C0000018
:1000100033C0000031C000002FC000002DC0000020
:100020002BC0000029C0000027C0000025C0000030
:1000300023C0000021C000001FC000001DC0000040
:100040001BC0000019C0000017C0000015C0000050
:1000500013C0000011C000000FC000000DC0000060
:100060000BC0000009C0000011241FBECFEFD8E074
:10007000DEBFCDBF22D080C0C3CF40E050E0E0E47F
:100080004617570790F420E030E02817390739F079
:10009000F5E0FA95F1F700002F5F3F4FF6CF2BB157
:1000A0002E272BB9480F591FEBCF089525E02A952D
:1000B000F1F700000197D1F70895569A60E07FEFBD
:1000C0008DE093E0DADF80E09FEFF0DF60E07FEF2C
:1000D0008DE093E0D2DF80E09FEFE8DF60E07FEF2C
:1000E0008DE693E0CADF80E09FEFE0DF60E07FEF26
:1000F0008DE093E0C2DF80E09FEFD8DF60E07FEF2C
:1001000083E194E0BADF80E09FEFD0DF60E07FEF33
:1001100083E194E0B2DF80E09FEFC8DF60E07FEF33
:100120008DE093E0AADF80E09FEFC0DF60E07FEF2B
:1001300089E492E0A2DF60E07FEF89E492E09DDF56
:1001400080E09FEFB3DF60E07FEF8CE692E095DF29
:1001500060E07FEF8CE692E090DF80E09FEFA6DF2B
:1001600060E07FEF8DE093E088DF80E09FEF9EDF2F
:0C01700080E09FEF9BDFA2CFF894FFCF50
:00000001FF
