:1000000033C0000041C000003FC000003DC0000000
:100010003BC0000039C0000037C0000035C0000000
:1000200033C0000031C000002FC000002DC0000010
:100030002BC0000029C0000027C0000025C0000020
:1000400024C0000021C000001FC000001DC000002F
:100050001BC0000019C0000017C0000015C0000040
:1000600013C0000011C0000011241FBECFEFD8E064
:10007000DEBFCDBF21E0A0E0B1E001C01D92A13004
:10008000B207E1F72FD033C0BBCF1F920F920FB64C
:100090000F9211248F93809100018093B30080917F
:1000A00000018F5F809300018F910F900FBE0F9022
:1000B0001F901895EEE6F0E080818160808385B521
:1000C000856085BD78940895E0EBF0E080818360E1
:1000D0008083A1EBB0E08C9182608C9380818068FA
:1000E0008083089588E084B9E5DFEEDFFFCFF894E0
:0200F000FFCF40
:00000001FF
