:1000000033C0000044C0000042C0000040C00000F7
:100010003EC000003CC000003AC0000038C00000F4
:1000200036C0000034C0000032C0000030C0000004
:100030002EC000002CC000002AC0000028C0000014
:1000400026C0000024C0000022C0000020C0000024
:100050001EC000001CC000001AC0000018C0000034
:1000600016C0000014C0000011241FBECFEFD8E05E
:10007000DEBFCDBF11E0A0E0B1E0E0E2F1E002C000
:1000800005900D92A637B107D9F733D047C0B8CF46
:100090001092C50087E68093C400E0ECF0E0808118
:1000A0008D7F808388E18093C10086E08093C200C9
:1000B00008959091C00095FFFCCF8093C6000895ED
:1000C0008091C00087FFFCCF8091C60008951F93E8
:1000D000CF93DF93EC0110E0FE01E10FF11D808171
:1000E000882319F0E6DF1F5FF7CFDF91CF911F91D3
:1000F0000895CEDF82E084B980E091E0E8DFC2E0DD
:10010000DFDF813621F4C5B98CE491E005C0853785
:10011000B9F715B881E691E0DADFF2CFF894FFCFB6
:100120005479706520276127206F6D2068657420E1
:100130006C616D706A65207465206C6174656E20F9
:100140006272616E64656E20656E20277527206F70
:100150006D20686574206C616D706A6520756974C6
:1001600020746520646F656E200A0D004465206C64
:10017000616D70206973206E752061616E200A0DBB
:10018000004465206C616D70206973206E75207568
:060190006974200A0D0055
:00000001FF
