:1000000033C0000039C0000037C0000035C0000018
:1000100033C0000031C000002FC000002DC0000020
:100020002BC0000029C0000027C0000025C0000030
:1000300023C0000021C000001FC000001DC0000040
:100040001BC0000019C0000017C0000015C0000050
:1000500013C0000011C000000FC000000DC0000060
:100060000BC0000009C0000011241FBECFEFD8E074
:10007000DEBFCDBF2DD068C1C3CFECE7F0E08081FB
:1000800080648083EAE7F0E08081876080838081FC
:1000900080688083089580917A00806480937A00DC
:1000A00080917A0086FDFCCF809178009091790054
:1000B000089520E030E02817390749F0EFE9FFE024
:1000C0003197F1F700C000002F5F3F4FF4CF089544
:1000D00080E284B9D2DFC0E2DEDFC5B9EFE8F1E04B
:1000E0003197F1F700C0000015B8BC0180E090E046
:1000F0009DD02DEC3CEC4CEC52E404D06BD0CB0109
:10010000D8DFEACF0CD0E6C0DED040F0D5D030F05A
:1001100021F45F3F19F0C7C0511110C1CAC0EBD024
:1001200098F39923C9F35523B1F3951B550BBB27BE
:10013000AA2762177307840738F09F5F5F4F220F6B
:10014000331F441FAA1FA9F333D00E2E3AF0E0E864
:1001500030D091505040E695001CCAF729D0FE2FB0
:1001600027D0660F771F881FBB1F26173707480742
:10017000AB07B0E809F0BB0B802DBF01FF279358F8
:100180005F4F2AF09E3F510568F08DC0D7C05F3F9A
:10019000ECF3983EDCF3869577956795B795F795E0
:1001A0009F5FC9F7880F911D9695879597F90895D8
:1001B000E1E0660F771F881FBB1F62177307840774
:1001C000BA0720F0621B730B840BBA0BEE1F88F783
:1001D000E095089598D088F09F5790F0B92F99270F
:1001E000B751A0F0D1F0660F771F881F991F1AF042
:1001F000BA95C9F712C0B13081F09FD0B1E008952F
:100200009CC0672F782F8827B85F39F0B93FCCF3AF
:10021000869577956795B395D9F73EF49095809537
:10022000709561957F4F8F4F9F4F0895E89409C057
:1002300097FB3EF490958095709561957F4F8F4F19
:100240009F4F9923A9F0F92F96E9BB279395F6952F
:10025000879577956795B795F111F8CFFAF4BB0FAD
:1002600011F460FF1BC06F5F7F4F8F4F9F4F16C011
:10027000882311F096E911C0772321F09EE8872F9B
:10028000762F05C0662371F096E8862F70E060E057
:100290002AF09A95660F771F881FDAF7880F9695D0
:1002A000879597F9089597F99F6780E870E060E077
:1002B00008959FEF80EC089500240A9416161706FF
:1002C00018060906089500240A9412161306140647
:1002D00005060895092E0394000C11F4882352F0AA
:1002E000BB0F40F4BF2B11F460FF04C06F5F7F4F62
:1002F0008F4F9F4F089557FD9058440F551F59F049
:100300005F3F71F04795880F97FB991F61F09F3F02
:1003100079F087950895121613061406551FF2CF2B
:100320004695F1DF08C0161617061806991FF1CF7B
:1003300086957105610508940895E894BB276627A2
:0C0340007727CB0197F90895F894FFCFC0
:00000001FF
